:020000040000FA
:100000000C943A080C9462080C9462080C946208F0
:100010000C9462080C9462080C9462080C946208B8
:100020000C9462080C9462080C9462080C946208A8
:100030000C9462080C9462080C9462080C94620898
:100040000C94ED190C9462080C945D1A0C94371AF8
:100050000C9462080C9462080C9462080C94620878
:100060000C948F1A0C94620808000000BE92244978
:10007000123EABAAAA2ABECDCCCC4C3E00000080DA
:10008000BEABAAAAAA3E00000000BF000000803F4D
:100090000000000000084178D3BB4387D1133D190D
:1000A0000E3CC3BD4282AD2B3E68EC8276BED98F3A
:1000B000E1A93E4C80EFFFBE01C4FF7F3F0000007E
:1000C000000000407A10F35A00A0724E1809001088
:1000D000A5D4E80000E87648170000E40B540200BD
:1000E00000CA9A3B000000E1F505000080969800E8
:1000F000000040420F000000A08601000000102711
:1001000000000000E80300000000640000000000A0
:100110000A00000000000100000000002C76D888D2
:10012000DC674F0823DFC1DFAE59E1B1B796E5E3E5
:10013000E453C63AE651997696E8E6C28426EB89FE
:100140008C9B62ED407C6FFCEFBC9C9F40F2BAA59B
:100150006FA5F490055A2AF75C936B6CF9676DC133
:100160001BFCE0E40D47FEF520E6B500D0ED902E37
:100170000300943577050080841E080000204E0A95
:10018000000000C80C333333330F986E12831141D3
:10019000EF8D2114893BE65516CFFEE6DB18D1849E
:1001A0004B381BF77C1D901DA4BBE42420328472C5
:1001B0005E228100C9F124ECA1E53D27000000008A
:1001C000003E5B4F5B3E3E6B4F6B3E1C3E7C3E1CDD
:1001D000183C7E3C181C577D571C1C5E7F5E1C0023
:1001E000183C1800FFE7C3E7FF0018241800FFE7DA
:1001F000DBE7FF30483A060E2629792926407F059D
:100200000507407F05253F5A3CE73C5A7F3E1C1CB2
:1002100008081C1C3E7F14227F22145F5F005F5F72
:1002200006097F017F006689956A6060606060945E
:10023000A2FFA29408047E040810207E2010080863
:100240002A1C08081C2A08081E101010100C1E0C6E
:100250001E0C30383E3830060E3E0E060000000000
:100260000000005F00000007000700147F147F14E7
:10027000242A7F2A1223130864623649562050002C
:1002800008070300001C2241000041221C002A1C18
:100290007F1C2A08083E0808008070300008080803
:1002A0000808000060600020100804023E51494523
:1002B0003E00427F400072494949462141494D3341
:1002C0001814127F1027454545393C4A49493141A8
:1002D000211109073649494936464949291E000076
:1002E00014000000403400000008142241141414CB
:1002F0001414004122140802015909063E415D59B7
:100300004E7C1211127C7F494949363E41414122BF
:100310007F4141413E7F494949417F090909013EE9
:10032000414151737F0808087F00417F4100204010
:10033000413F017F081422417F404040407F021C22
:10034000027F7F0408107F3E4141413E7F09090939
:10035000063E4151215E7F09192946264949493205
:1003600003017F01033F4040403F1F2040201F3FCB
:100370004038403F63140814630304780403615950
:10038000494D43007F414141020408102000414192
:10039000417F04020102044040404040000307083E
:1003A0000020545478407F2844443838444444283A
:1003B000384444287F385454541800087E090218E1
:1003C000A4A49C787F0804047800447D4000204069
:1003D000403D007F1028440000417F40007C0478AD
:1003E00004787C080404783844444438FC182424F5
:1003F0001818242418FC7C08040408485454542475
:1004000004043F44243C4040207C1C2040201C3CF1
:100410004030403C44281028444C9090907C4464E8
:10042000544C44000836410000007700000041367B
:10043000080002010204023C2623263C1EA1A16101
:10044000123A4040207A3854545559215555794133
:100450002254547842215554784020545579400C08
:100460001E527212395555555939545454593955EB
:100470005454580000457C410002457D420001452E
:100480007C407D1211127DF0282528F07C545545C2
:10049000002054547C547C0A097F4932494949322E
:1004A0003A4444443A324A4848303A4141217A3A3F
:1004B00042402078009DA0A07D3D4242423D3D400B
:1004C00040403D3C24FF2424487E4943662B2FFCBA
:1004D0002F2BFF0929F620C0887E09032054547968
:1004E000410000447D413048484A32384040227A39
:1004F000007A0A0A727D0D19317D2629292F2826B6
:100500002929292630484D402038080808080808BD
:100510000808382F10C8ACBA2F102834FA00007B16
:10052000000008142A142222142A14085500550029
:1005300055AA55AA55AAFF55FF55FF000000FF0018
:10054000101010FF00141414FF001010FF00FF1013
:1005500010F010F0141414FC001414F700FF000045
:10056000FF00FF1414F404FC141417101F10101FC4
:10057000101F1414141F00101010F0000000001FB2
:10058000101010101F10101010F010000000FF10BD
:100590001010101010101010FF10000000FF1400B9
:1005A00000FF00FF00001F10170000FC04F41414EB
:1005B0001710171414F404F40000FF00F7141414B7
:1005C00014141414F700F7141414171410101F1037
:1005D0001F141414F4141010F010F000001F101F5A
:1005E0000000001F14000000FC140000F010F010C8
:1005F00010FF10FF141414FF141010101F0000003F
:1006000000F010FFFFFFFFFFF0F0F0F0F0FFFFFF42
:100610000000000000FFFF0F0F0F0F0F3844443899
:1006200044FC4A4A4A347E02020606027E027E02E8
:1006300063554941633844443C04407E201E2006F3
:10064000027E020299A5E7A5991C2A492A1C4C7230
:1006500001724C304A4D4D303048784830BC625AB7
:10066000463D3E494949007E0101017E2A2A2A2A47
:100670002A44445F444440514A444040444A514023
:100680000000FF0103E080FF000008086B6B0836E4
:1006900012362436060F090F060000181800000055
:1006A0001010003040FF0101001F01011E00191D44
:1006B0001712003C3C3C3C00000000000001030716
:1006C0000F1F3F7F0080C0E0F0F8FCFEDB40A4A6D7
:1006D0002EAF2000A1C8D300408DAED580A8000069
:1006E000600000000000000000000000000000E0CA
:1006F0000000000000000000000000000001E00019
:1007000000000000000000000000000001F00000F8
:10071000000000000000000000000003F0000000E6
:100720000000000000000000000007F000000000D2
:1007300000000000000000000007F80000000000BA
:1007400000000000000000000FF800000003C000DF
:100750007E000001E0007F0FF800000003C000FEF3
:10076000000001E000FFEFF800000003C000FE0001
:100770000001E000FFFFF800000003C000F00000EF
:10078000000F007FFE7FC0000003C000F0000000EB
:100790000F003FFE7FF83FF1FBCFFCFEF3BC3DEFC7
:1007A000E01FFE7FFF7FFBFFDFFEFEFFBC3DEFE0B3
:1007B0001FC6FFFF7FFBFFDFFEFEFFBC3DEFE00F2C
:1007C000E3C7FE787BC3DE1EF0FFBC3DEF0007FFF2
:1007D00087FC787BC3DE1EF0F83C3DEF0001FFFF95
:1007E000F0007BC3C01EF0F03C3DEF0001F37FE062
:1007F0003FFBC3CFFEF0F03C3DEF0003E33F807FC3
:10080000FBC3DFFEF0F03C3DEF0007E73C00787BE8
:10081000C3DE1EF0F03C3DEF0007FFBE00787BC357
:10082000DE1EF0F03C3DEF0007FFFE00787BC3DEEC
:100830001EF0F03C3DEF000FFFFE007FFBFFDFFEF0
:10084000F0F03FFDEFE00FFFFF007FFBFFDFFEF06A
:10085000F03FFDEFE00FF9FF003E79F9CF9EF0F099
:100860001F3DE7E01FF1FF00000000000000000056
:100870000000001F80FF007FFFFFFFFFFFFFFFFF63
:10088000FFE01C007F007FFFFFFFFEB46D888D1826
:10089000E000001F007FFFFFFFFE95AD7DB577E014
:1008A00000000F007FFFFFFFFEA5AD9D8D19E0004A
:1008B0000006007FFFFFFFFEB5ADEDB57EE0000056
:1008C0000000000180000000000000000000038024
:1008D00000000000000000000007C0000000000051
:1008E0000000000007C00000000000000000000F32
:1008F000C00000000000000000001FE00000000039
:1009000000000000001FE0000000000000000000E8
:100910003FE00000000000000000003FF000000089
:100920000000000000007FF0000000000000001F39
:10093000F87FF0000000000000003FFE7FF00000A4
:1009400000000000003FFF7FF000000000000000FA
:100950001FFFFBE0000000000000000FFFF9FFC0D8
:100960000000000000000FFFF9FFF8000000000089
:100970000007FFF1FFFF00000000000003FC73FF11
:10098000FF80000000000001FE3FFFFF800000002C
:10099000000000FF1E0FFF000000000000007FFEAF
:1009A0001FFC000000000000003FFFFFF8000000F7
:1009B000000000000FDFFFE0000000000000001F4B
:1009C00019FFC0000000000000003F3CFF000000D5
:1009D00000000000007E7CF8000000000000000025
:1009E0007FFE7C0000000000000000FFFFFC000014
:1009F000000000000000FFFFFE00000000000000FB
:100A000000FFFFFE0000000000000001FFEFFE00FD
:100A100000000000000001FFCFFE00000000000009
:100A20000003FF07FE0000000000000003FC07FEBB
:100A30000000000000000003F003FE0000000000C2
:100A40000000018000FE0000000000000000000027
:100A50007E000000000000000000003E00000000DA
:100A60000000000000000C000000000000078000F3
:100A7000FC000003C0000000078001FC000003C070
:100A8000000000078001FC000003C0000000078098
:100A900001E00000001E000000078001E0000000EF
:100AA0001E007FE3F79FF9FDE7787BDFC0FFF7FFCC
:100AB000BFFDFDFF787BDFC0FFF7FFBFFDFDFF78C7
:100AC0007BDFC0F0F787BC3DE1FF787BDE00F0F70D
:100AD00087BC3DE1F0787BDE0000F787803DE1E0F8
:100AE000787BDE007FF7879FFDE1E0787BDE00FF0B
:100AF000F787BFFDE1E0787BDE00F0F787BC3DE1E2
:100B0000E0787BDE00F0F787BC3DE1E0787BDE003B
:100B1000F0F787BC3DE1E0787BDE00FFF7FFBFFD2B
:100B2000E1E07FFBDFC0FFF7FFBFFDE1E07FFBDF20
:100B3000C07CF3F39F3DE1E03E7BCFC000000000AE
:100B400000000000000000FFFFFFFFFFFFFFFFFFAE
:100B5000FFC0FFFFFFFFFD68DB111A31C0FFFFFF81
:100B6000FFFD2B5AFB6AEFC0FFFFFFFFFD4B5B3B16
:100B70001A33C0FFFFFFFFFD6B5BDB6AFDC00000A7
:100B80000000000000000000000000000000000065
:100B90000000000000000000000000000000000055
:100BA0000000000000000000000000000000000045
:100BB0000000000000000000000000000000000035
:100BC0000000000000000000000000000000000025
:100BD0000000000000000000000000000000000015
:100BE0000000000000000000000000000000000005
:100BF00000000000000000000000000000000000F5
:100C000000000000000000000000000000000000E4
:100C100000000000000000000000000000000000D4
:100C200000000000000000000000000000000000C4
:100C300000000000000000000000000000000000B4
:100C400000000000000000000000000000000000A4
:100C50007FFFFFFFFFFFFFFFFFFFFFFE000000071A
:100C6000FFFFFFFFFFFFFFFFFFFFFFFFE000000FA1
:100C7000FFFFFFFFFFFFFFFFFFFFFFFFF000003F51
:100C8000FFFFFFFFFFFFFFFFFFFFFFFFFC00007FF5
:100C9000FFFFFFFFFFFFFFFFFFFFFFFFFE0000FF63
:100CA000000000000000000000000000FF8001FCC8
:100CB0000000000000000000000000003F8003F082
:100CC0000000000000000000000000000FC007E06E
:100CD00000000000000000000000000007E00FC05E
:100CE00000000000000000000000000003F00F8181
:100CF000FFC0003F800000000003E00F01F01F81F3
:100D0000FFF1FF3F800000000003E00F01F81F012A
:100D1000FFF3FF3F800000000003E00F00F81F001A
:100D2000FFF0001F000000000001E00400F81E00BA
:100D3000F9F0FC1F003F0FBC1EF1EF0F007C3E00DE
:100D4000F9F3FF1F007FCFFE3FF9FF9F007C3E00BD
:100D5000F9F3FF1F00FFCFFE7FF9FFDF007C3E00AD
:100D6000F9F3CF9F00F3EFFE7FF9FFCF007C3E0049
:100D7000F9F3CF9F3CF3EF9E7CF1E7CF003C3C00C2
:100D8000F9F3FF9F3CF3EF9E7CF1E7CF003C3E0080
:100D9000F9F3FF9F3CF3EF9E7CF1E7CF007C3E0030
:100DA000F9F3FF1F3CF3EF9E7CF1E7CF007C3E00A0
:100DB000F9F3CF1F3CF3EF9E7CF1E7CF007C1E00E0
:100DC000FFF3CF9FFCFBEF9F7FF1F7CF807C1F01EC
:100DD000FFF3FFBFFCFFCFDF7FF3F7DF80F81F01DA
:100DE000FFE1FF3FFC7FCFDF3FF3F7DF80F81F819C
:100DF000FF00FC1FFC3F0F9F1EF3F7CF81F80F8011
:100E000000000000000000003CF0000001F00FC0F6
:100E100000000000000000003FF0000003F007E0C9
:100E200000000000000000003FF0000007E003F0B9
:100E300000000000000000003FE000000FC001FCC7
:100E40000000000000000000030000003F8000FFE1
:100E5000000000000000000000000000FF80007F94
:100E6000FFFFFFFFFFFFFFFFFFFFFFFFFE00003F51
:100E7000FFFFFFFFFFFFFFFFFFFFFFFFFC00000F73
:100E8000FFFFFFFFFFFFFFFFFFFFFFFFF000000777
:100E9000FFFFFFFFFFFFFFFFFFFFFFFFE00000007E
:100EA0007FFFFFFFFFFFFFFFFFFFFFFE00000000CF
:100EB0000000000000000000000000000000000032
:100EC0000000000000000000000000000000000022
:100ED0000000000000000000000000000000000012
:100EE0000000000000000000000000000000000002
:100EF00000000000000000000000000000000000F2
:100F000000000000000000000000000000000000E1
:100F100000000000000000000000000000000000D1
:100F200000000000000000000000000000000000C1
:100F300000000000000000000000000000000000B1
:100F400000000000000000000000000000000000A1
:100F50000000000000000000000000000000000091
:100F60000000000000000000000000000000000081
:100F700000000000000000000000000000004469C4
:100F800073706C6179206B6F6E6E7465206E69632F
:100F9000687420696E697469616C697369657274DB
:100FA0002077657264656E210031320038003400AC
:100FB000313000360032006D61783A006176673A70
:100FC000000300070007A0078007A0078007E007CD
:100FD00080078007800CC008C008C00FC00700074A
:100FE000C00C60183010903198311830181010185B
:100FF000300FE001000FE0FFFEF83E1FF03FF83F2A
:10100000F8183018300FE00FE007C0038007C00E5B
:10101000E00C60183019303FF83FF800000008007D
:1010200002010000030407000000000000000000AF
:10103000000000250028002B0000000000240027ED
:10104000002A00040404040404040402020202024C
:10105000020303030303030102040810204080017C
:1010600002040810200102040810202200FF2100C1
:10107000AE1B8A2511241FBECFEFD8E0DEBFCDBF47
:1010800023E0A8E6B1E001C01D92A63DB207E1F75A
:1010900011E0A0E0B1E0EAEFFAE502C005900D92A0
:1010A000A836B107D9F718E0C9E3D8E004C0219702
:1010B000FE010E946C2BC833D107C9F70E94311C76
:1010C0000C94702D0C940000089590E0FC01E95AF6
:1010D000FF4E24918D5B9F4EFC018491882399F0F3
:1010E00090E0880F991FFC01E75CFF4EA591B49139
:1010F000FC01E15DFF4E859194918FB7F894EC91DE
:10110000E22BEC938FBF0895FC01538D448D252F66
:1011100030E0842F90E0821B930B541710F0CF9691
:10112000089501970895FC01918D828D981761F0C3
:10113000A28DAE0FBF2FB11D5D968C91928D9F5FDA
:101140009F73928F90E008958FEF9FEF0895FC01B9
:10115000918D828D981731F0828DE80FF11D858D6C
:1011600090E008958FEF9FEF0895FC01918D228DFF
:10117000892F90E0805C9F4F821B91098F73992784
:101180000895FC01A48DA80FB92FB11DA35ABF4F1C
:101190002C91848D90E001968F739927848FA68976
:1011A000B7892C93A089B1898C91837080648C93CA
:1011B000938D848D981306C00288F389E02D808179
:1011C0008F7D80830895EF92FF920F931F93CF93AB
:1011D000DF93EC0181E0888F9B8D8C8D98131AC072
:1011E000E889F989808185FF15C09FB7F894EE8959
:1011F000FF896083E889F9898081837080648083B6
:101200009FBF81E090E0DF91CF911F910F91FF9000
:10121000EF900895F62E0B8D10E00F5F1F4F0F73A8
:101220001127E02E8C8D8E110CC00FB607FCFACF63
:10123000E889F989808185FFF5CFCE010E94C10838
:10124000F1CFEB8DEC0FFD2FF11DE35AFF4FF08234
:101250009FB7F8940B8FEA89FB8980818062CFCF9A
:10126000CF93DF93EC01888D8823B9F0AA89BB89DD
:10127000E889F9898C9185FD03C0808186FD0DC0C8
:101280000FB607FCF7CF8C9185FFF2CF808185FFE9
:10129000EDCFCE010E94C108E9CFDF91CF91089533
:1012A00089EE92E00E94B50821E0892B09F420E044
:1012B000822F089580E090E0892B29F00E94500948
:1012C00081110C940000089590E0FC01E55EFF4E52
:1012D0002491FC01E95AFF4E3491FC01ED5BFF4E75
:1012E000E491EE23C9F0222339F0233001F1A8F470
:1012F000213019F1223029F1F0E0EE0FFF1FE15DFE
:10130000FF4EA591B4918FB7F894EC91611126C06E
:1013100030953E233C938FBF08952730A9F02830A5
:10132000C9F0243049F7809180008F7D03C08091FF
:1013300080008F7780938000DFCF84B58F7784BD66
:10134000DBCF84B58F7DFBCF8091B0008F7780930A
:10135000B000D2CF8091B0008F7DF9CF3E2BDACF95
:101360008E50806480937C0080917A0080648093AA
:101370007A0080917A0086FDFCCF80917800909170
:10138000790008953FB7F8948091E1029091E202CC
:10139000A091E302B091E40226B5A89B05C02F3FBF
:1013A00019F00196A11DB11D3FBFBA2FA92F982F8B
:1013B0008827BC01CD01620F711D811D911D42E086
:1013C000660F771F881F991F4A95D1F708958F924E
:1013D0009F92AF92BF92CF92DF92EF92FF924B011A
:1013E0005C010E94C2096B017C010E94C2096C1958
:1013F0007D098E099F09683E734081059105A8F318
:1014000021E0821A9108A108B10888EEC80E83E095
:10141000D81EE11CF11C81149104A104B10429F728
:10142000FF90EF90DF90CF90BF90AF909F908F9004
:10143000089508950895AF92BF92CF92DF92EF92F0
:10144000FF920F931F93CF93DF936C017B018B016E
:10145000040F151FEB015E01AE18BF08C017D107BE
:1014600059F06991D601ED91FC910190F081E02D48
:10147000C6010995892B79F7C501DF91CF911F919D
:101480000F91FF90EF90DF90CF90BF90AF900895B5
:10149000EF92FF920F931F93CF93DF93EC01EC80B9
:1014A000FD806E157F050CF070C057FF04C0240F3F
:1014B000351F50E040E08E819F81FA01E20FF31F5B
:1014C0008E179F071CF49C01241B350B1216130664
:1014D0000CF05BC0922F842F8695869586958E9D05
:1014E000D0018F9DB00D11246A0F7B1FAF8DB8A165
:1014F000A60FB71F477049F188E0841B482F682F5B
:1015000070E0FB01EC53F94FE491281708F063C039
:10151000621B71092FEF30E002C0359527956A955F
:10152000E2F7E2230130110539F0B0F10230110584
:1015300061F58C91E82702C08C91E82BEC9394170D
:1015400020F12C813D81A20FB31FE92FE41BE8306D
:1015500078F00230110521F58E2F9C9190959C9387
:101560002C813D81A20FB31F88508830B0F7E770FF
:10157000EE2359F0F0E0E454F94FE4910130110505
:10158000F9F010F10230110519F1DF91CF911F919F
:101590000F91FF90EF900895E0958C91E823CECFC6
:1015A00081E00115110509F480E081959E2F8C934F
:1015B0002C813D81A20FB31F98509830C0F7D7CF30
:1015C0008C91E82BEC93E1CFE0958C91E823FACF56
:1015D0008C91E827F7CF0130110509F4ADCFE0F287
:1015E0000230110509F4A5CFAE0DBF1DAECF0F938C
:1015F0001F93CF93DF9377FF04C0260F371F70E050
:1016000060E0DC011496CD91DC91FB01E20FF31F49
:10161000CE17DF071CF49E01261B370B121613068C
:101620004CF5FA0157FD3796A3E0F595E795AA9595
:10163000E1F7EC9FD001ED9FB00DFC9FB00D1124A0
:101640006A0F7B1FDC015F96ED91FC91E60FF71F9F
:101650004770552781E090E001C0880F4A95EAF76E
:10166000482F0130110559F0A8F02E0F3F1F02300E
:101670001105E1F0DF91CF911F910F9108952E0F89
:101680003F1FE217F307B1F38191DF011197842B1C
:101690008C93F7CF80952E0F3F1FE217F30751F37E
:1016A0009191DF01119798239C93F7CFE217F307ED
:1016B00009F38191DF01119784278C93F7CF0F9362
:1016C0001F93FA01DC0156964C9156974230E9F08F
:1016D0004330A1F1413061F514964D915C91DA01EE
:1016E000AE1BBF0BFD01E21BF30B77FD0BC0DC0152
:1016F00016964D915C916417750724F4AB01BF01F8
:101700000E94F70A1F910F91089514964D915C91D4
:10171000DA01A61BB70BBD0161507109DC011696F9
:101720004D915C91DA01AE1BBF0BFD01E21BF30B87
:1017300077FDE8CFAF010E94480AE4CF16964D919D
:101740005C91DA01A61BB70BBD0161507109CDCFC9
:101750000F931F93FA01DC0156964C915697423035
:10176000A9F0433091F1413019F514964D915C91F7
:10177000DA01AE1BBF0BFD013197F7FD04C0AB01D1
:10178000BF010E94480A1F910F91089514964D9130
:101790005C91DA01A61BB70BBD01DC0116964D91D9
:1017A0005C91DA01AE1BBF0BFD013197621B730B1D
:1017B000F7FDE9CFDC0116964D915C91E417F50732
:1017C00014F7AF010E94F70ADECF16964D915C9197
:1017D000DA01A61BB70BBD01621B730BCECFFC0158
:1017E00077FD64C080859185681779070CF05EC02D
:1017F00057FD5CC082859385481759070CF056C089
:1018000086898230B1F0833029F1813041F48481BE
:101810009581841B950BAB01BC016150710921308E
:10182000310509F108F443C02230310509F463C0E1
:10183000089584819581DC01A61BB70BBD01615021
:10184000710986819781DC01A41BB50BAD01415064
:101850005109E5CF86819781861B970BBA01AC01B0
:1018600041505109DCCFCA0157FD0796A3E0959579
:101870008795AA95E1F7A481B5818A9F90018B9FF6
:10188000300D9A9F300D1124620F731F078CF0A149
:10189000E02DE60FF71F4770552721E030E001C02B
:1018A000220F4A95EAF78081822B80830895CA012E
:1018B00057FD079633E0959587953A95E1F7A48112
:1018C000B5818A9F90018B9F300D9A9F300D112416
:1018D000620F731F078CF0A1E02DE60FF71F477012
:1018E000552781E090E001C0880F4A95EAF780957E
:1018F00090818923DACFCA0157FD079623E0959599
:1019000087952A95E1F7A481B5818A9F90018B9FE5
:10191000300D9A9F300D1124620F731F078CF0A1B8
:10192000E02DE60FF71F4770552721E030E001C09A
:10193000220F4A95EAF780818227B7CF08958EBD9E
:1019400000000DB407FEFDCF8EB508958CBD9DBD82
:1019500008950895FC016370668B848195812681CA
:101960003781613039F0633029F091878087338780
:1019700022870895318720879387828708952F9241
:101980003F924F925F926F927F928F929F92AF920F
:10199000BF92CF92DF92EF92FF920F931F93CF935C
:1019A000DF93CDB7DEB76A970FB6F894DEBF0FBEF0
:1019B000CDBF9A8F898F7A8369834A01D22E188787
:1019C0000F833701BC2CDC0159962D913C915A971D
:1019D0002115310509F015C118968D919C91199723
:1019E000681779070CF0D7C11A968D919C9148170A
:1019F00059070CF0D0C14C2C512CB6E0CB9E600D99
:101A0000711D11247C876B87161617060CF0C3C155
:101A1000EA2DF0E0FA87E98793E0EE0FFF1F9A9531
:101A2000E1F7F88BEF87CF01840F951F1816190681
:101A30000CF0B1C1A98DBA8D58968C91811104C05A
:101A4000BFEABD1508F4D394A98DBA8DED91FC9130
:101A500011970284F385E02DCD010995B5E0DB9E59
:101A6000C0011124E981FA81FC83EB83312C212C04
:101A70009C0124543E4F388F2F8B4A2D50E05E8BB3
:101A80004D8BEF89F88DE20DF31D44919E828D827E
:101A9000D12CC12C69817A81620D731D7A8B698B7F
:101AA000842F90E09C8B8B8BE98DFA8DA081B18186
:101AB00040FF82C0F1E0BF126FC0AF126DC01C9634
:101AC000ED91FC912F813885A4014C0D5D1D698934
:101AD0007A89898D9A8D0995EB89FC89F595E79529
:101AE0004E2F5FEFC51AD50A6D817E818D899E8943
:101AF000680F791F7E836D8398E0C916D10481F643
:101B0000AFEF2A1A3A0AEB81FC81E40DF51DFC8344
:101B1000EB83F5E02F16310409F0B3CF2F81388520
:101B200026153705B9F0A98DBA8DED91FC91B1E07C
:101B3000BB1257C0AB1255C069817A816B5F7F4F72
:101B40000088F189E02D830128E030E0A401898D2F
:101B50009A8D0995A98DBA8DED91FC911197068802
:101B6000F789E02DCD016A960FB6F894DEBF0FBE5F
:101B7000CDBFDF91CF911F910F91FF90EF90DF903C
:101B8000CF90BF90AF909F908F907F906F905F901D
:101B90004F903F902F9009941E96ED91FC91EF800D
:101BA000F88409851A8592014D815E816B817C8163
:101BB000898D9A8D099590CF2F8138852615370507
:101BC00009F48ACF31E0B31207C0A31205C01C96F6
:101BD000ED91FC91930178CF1E96ED91FC917301EC
:101BE000E0CF6B857C85641975090684F785E02D47
:101BF00073010F8518899201A401898D9A8D099529
:101C0000A9CFF90134969491329745915491D91AFC
:101C1000B7E0DB9E400D511D1124F901259134914F
:101C20003C8B2B8BFA0125903490FA0132967490FC
:101C300031963491398B329664903196449041E0DC
:101C40004C1518F04A1508F07FC0662D062C000CC4
:101C5000770B7C836B83842D042C000C990B9E8363
:101C60008D83A98DBA8DED91FC9111970284F38536
:101C7000E02DCD010995512CD12CC12CEA2DF0E09D
:101C8000FA87E9872B2D30E03C872B87A401440D90
:101C9000511D47FC5A95588F4F8B69817A81660D8B
:101CA000711D67FC7A957E876D877989C71608F064
:101CB00051CF2C2D30E04D815E81420F531FA985FD
:101CC000BA854A9FC0014B9F900D5A9F900D1124D9
:101CD000FC01E80DF91DF88BEF87852D612C4F89EC
:101CE000588D420F531F5E8B4D8B671408F050C008
:101CF00044244394480E877041F4C1010196EB8956
:101D0000FC89E20DF31DD4901C01D7FE19C0A98DEA
:101D1000BA8DED91FC91662D70E0B1E0BB1219C057
:101D2000AB1217C02D853E85620F731F0484F585A5
:101D3000E02D2F8138854D895E89898D9A8D099591
:101D4000DD0C6394842DD1CF1E821D821C821B82E8
:101D500088CF4B815C81640F751FAB85BC856A9F02
:101D6000C0016B9F900D7A9F900D112469817A813B
:101D7000680F791F0684F785E02DEF80F8840985C8
:101D80001A859D014F855889898D9A8D0995D8CFDF
:101D9000570CC3948ACF6A960FB6F894DEBF0FBE75
:101DA000CDBFDF91CF911F910F91FF90EF90DF900A
:101DB000CF90BF90AF909F908F907F906F905F90EB
:101DC0004F903F902F9008958F929F92AF92CF9215
:101DD000EF92FF920F931F93CF93DF93EC01262F87
:101DE000898D9A8D009709F051C06A30D1F41D8613
:101DF0001C868D8948E0849F900111248E859F85E3
:101E0000820F931F9F878E8781E090E0DF91CF91B3
:101E10001F910F91FF90EF90CF90AF909F908F9078
:101E200008956D3089F3CC88AD888F898823C1F0FF
:101E30008C859D8536E0C39E800D911D11244885BB
:101E400059854817590764F44E855F851D861C86A1
:101E500038E0A39EC0011124840F951F9F878E87B1
:101E6000EA88FB88088919894E855F856C857D85A0
:101E7000CE010E94BF0C2C898C859D8546E0249F55
:101E8000800D911D11249D878C87BECF6A3069F427
:101E90001D861C86FC013896E4912D898E859F85D0
:101EA000E29F800D911D1124ADCF6D3009F4ACCFB0
:101EB000FC0134963491631708F4A6CF3296E4916E
:101EC000E61708F4A1CFFC01329685909490462F36
:101ED000431B342F47E0349F800C911C1124F401E4
:101EE000329634913196E4913323A9F1EE2399F19E
:101EF000CC88F4013596E491AD884F89442301F1F3
:101F00000E2E000CFF0BE30FF11DCE9EA001CF9E05
:101F1000500D11246C857D85460F571F6885798586
:101F2000641775076CF44E855F851D861C86FC0161
:101F30003896E491AE9E400D511D11245F874E8767
:101F4000EA88FB88088919894E855F856C857D85BF
:101F5000CE010E94BF0CF4013496E4912C898C854B
:101F60009D85E29F800D911D11248DCF6F927F92F0
:101F70008F929F92AF92BF92CF92DF92EF92FF9299
:101F80000F931F93CF93DF93EC016B015A0139013B
:101F90004801E881F9810284F385E02D0995E88103
:101FA000F9810288F389E02D87019301A501B6012B
:101FB000CE010995A501480D591D41505109E881EF
:101FC000F9810288F389E02D9301B601CE010995CC
:101FD000E881F9810088F189E02D9401A501B6011D
:101FE000CE010995C60CD71CB60161507109E88174
:101FF000F9810088F189E02D9401A501CE010995B0
:10200000E881F9810688F789E02DCE01DF91CF9133
:102010001F910F91FF90EF90DF90CF90BF90AF9006
:102020009F908F907F906F9009946F927F928F9284
:102030009F92AF92BF92CF92DF92EF92FF920F9357
:102040001F93CF93DF935C01EB016A0149013801D3
:102050008701DC01ED91FC916217730719F5641695
:1020600075062CF0962D872D3A01C92ED82E960193
:10207000261937092F5F3F4F048CF58DE02DA30102
:10208000BE01C5010995DF91CF911F910F91FF907E
:10209000EF90DF90CF90BF90AF909F908F907F9008
:1020A0006F9008954615570591F42617370724F0C9
:1020B000892D4B01C22FD82F9E01281939092F5F76
:1020C0003F4F068CF78DE02DA601B401DACF0284D4
:1020D000F385E02D0995D501ED91FC910488F589F2
:1020E000E02D83019401A601BE01C5010995D5012A
:1020F000ED91FC910688F789E02DC501DF91CF9124
:102100001F910F91FF90EF90DF90CF90BF90AF9015
:102110009F908F907F906F900994EF92FF920F9312
:102120001F93DC011A960D911C911B9718962D9107
:102130003C911997ED91FC9100A0F1A1E02D7B015C
:1021400050E040E070E060E009951F910F91FF9032
:10215000EF9008954F925F926F927F928F929F922D
:10216000AF92BF92CF92DF92EF92FF920F931F93A5
:10217000CF93DF936C012B015A0139014801DC0137
:10218000ED91FC910284F385E02D0995E201640C48
:10219000751CD601ED91FC91C615D7055CF400883D
:1021A000F189E02D87019401A501BE01C6010995C1
:1021B0002196EFCF0688F789E02DC601DF91CF91F8
:1021C0001F910F91FF90EF90DF90CF90BF90AF9055
:1021D0009F908F907F906F905F904F9009948F9217
:1021E0009F92AF92BF92CF92DF92EF92FF920F93A6
:1021F0001F93CF93DF93EC015B014A016901E881F2
:10220000F9810284F385E02D099595012C0D3D1D82
:1022100021503109E881F9810488F589E02D7801A0
:102220008401A401B501CE010995E881F9810688F0
:10223000F789E02DCE01DF91CF911F910F91FF9093
:10224000EF90DF90CF90BF90AF909F908F900994C8
:102250008F929F92AF92BF92CF92DF92EF92FF92B6
:102260000F931F93CF93DF93EC015B014A01690148
:102270007801E881F9810284F385E02D0995C80C85
:10228000D91C860101501109E881F9810488F5897A
:10229000E02D9501A401B501CE010995E881F981F0
:1022A0000688F789E02DCE01DF91CF911F910F9124
:1022B000FF90EF90DF90CF90BF90AF909F908F9066
:1022C0000994EF92FF920F931F93DC01ED91FC9123
:1022D00000A0F1A1E02D09951F910F91FF90EF90C3
:1022E00008950F931F93DC01ED91FC91068CF78DFF
:1022F000E02D09951F910F9108950F931F93DC0115
:10230000ED91FC91048CF58DE02D09951F910F91B5
:102310000895DC01ED91FC910084F185E02D099494
:102320003F924F925F926F927F928F929F92AF9265
:10233000BF92CF92DF92EF92FF920F931F93CF93B2
:10234000DF9300D000D0CDB7DEB75C013B016A015E
:102350004901280187E0480E511C93E055944794A9
:102360009A95E1F7CA018E0D9F1D9A838983F12CFE
:10237000E12C312C1C821B828B819C8187709927D8
:10238000330C892B61F4EB81FC8183E0F595E795B3
:102390008A95E1F7EE0DFF1DE80DF91D349037FE2B
:1023A0000AC021E030E0A6016B817C81660D771DBB
:1023B000C5010E9489118B819C8101969C838B832E
:1023C00008171907C9F69FEFC91AD90AE40CF51CBA
:1023D00089819A81C816D90669F60F900F900F90DF
:1023E0000F90DF91CF911F910F91FF90EF90DF90B1
:1023F000CF90BF90AF909F908F907F906F905F90A5
:102400004F903F9008952F923F924F925F926F921C
:102410007F928F929F92AF92BF92CF92DF92EF9274
:10242000FF920F931F93CF93DF9300D000D000D083
:10243000CDB7DEB73C016A013E832D83FC82EB827F
:102440005801A41AB50AB7FE03C0B194A194B1080B
:102450008D809E80861A970A97FE03C0919481947E
:1024600091088A149B045CF0902F812F0D811E81AE
:102470009D838E839C2D8D2D6B01692F782F0C15DC
:102480001D055CF09D818E817E836D83692F782F81
:10249000902F812F8601C92ED82E1601201A310ABD
:1024A0002B012D813E81421A530A57FE03C05194DD
:1024B00041945108710137FE03C03FEFE31AF30A5C
:1024C000F594E7948D819E81861797075CF5A1E0CE
:1024D000B0E0BA83A983C016D1064CF1D301ED91C7
:1024E000FC910484F585E02D2B813C81A8016D8150
:1024F0007E818A149B041CF04D815E81B801C3016A
:102500000995E418F508F7FE0AC02D813E818981FE
:102510009A81280F391F3E832D83E20CF31C0F5F35
:102520001F4FD9CF2FEF3FEF3A832983D4CF269681
:102530000FB6F894DEBF0FBECDBFDF91CF911F91D4
:102540000F91FF90EF90DF90CF90BF90AF909F9052
:102550008F907F906F905F904F903F902F90089555
:1025600008952091CE01260F3327331F21323105E4
:10257000ECF42091F201FC0190E080E0243069F05D
:1025800082E00895A091CE012191AC0142555E4FA9
:10259000A40FB52FB11D2C930196861798F3809147
:1025A000CE01680F6093CE0180E0089581E0089528
:1025B0001092F20181E08093F4011092F30161E046
:1025C00082E10E94640961E083E10E946409E9EB11
:1025D000F0E080818E7F808380818D7F808388E49E
:1025E0008093B80085E48093BC000895CF93DF9377
:1025F00091E09093AD018823B9F0C091B800D091DB
:10260000BA008091BC008A7B8093BC0060E082E1CC
:102610000E94640960E083E10E9464090E94D8126C
:10262000D093BA00C093B800DF91CF910895E091A4
:102630001E0280911D02E81730F4F0E0E857FE4FCB
:10264000808190E008958FEF9FEF089590911E0292
:1026500080911D022FEF3FEF981748F4E92FF0E02B
:10266000E857FE4F208130E09F5F90931E02C90122
:10267000089580911D0290911E02891B990B089567
:10268000CF92DF92EF92FF920F931F93CF93DF933E
:102690007C01CB018A012091E802222389F0EB0121
:1026A0006B01C40ED51ECC15DD0569F06991D7010B
:1026B000ED91FC910190F081E02DC7010995F3CFD8
:1026C000642F0E94B112C801DF91CF911F910F9129
:1026D000FF90EF90DF90CF900895CF93DF931F92FC
:1026E000CDB7DEB769832091E8022223F9F020916B
:1026F000E502203258F021E030E0FC0133832283F0
:1027000090E080E00F90DF91CF9108958091E602F4
:10271000E82FF0E0E859FE4F998190838F5F809316
:10272000E6028093E50281E090E0ECCF61E0CE012B
:1027300001960E94B112F7CFCF92DF92EF92FF92F3
:102740000F931F93CF93DF93D091E50281E0D132B5
:1027500008F09CC0C091E7020E94C2096B017C0195
:102760008091F20181116CC082E08093F20181E0DE
:102770008093F4018FEF8093F10110921602D093B1
:102780001502A8E6B1E0E5EFF1E080E0D8138DC0D6
:102790001092170280911702CC0FC82BC09317021A
:1027A0008091F301813009F084C01092F3010E94FE
:1027B000C2096B017C01809117028093BB0080915C
:1027C000A9019091AA01A091AB01B091AC01892B14
:1027D0008A2B8B2BA1F00E94C2090091A9011091B4
:1027E000AA012091AB013091AC016C197D098E09D1
:1027F0009F09061717072807390708F442C0809178
:10280000BC0083FDD8CF85EC8093BC000E94C20938
:102810006B017C018091F201823009F44CC08091FF
:10282000F1018F3F09F469C08091F101803209F410
:1028300066C08091F101803309F463C084E026C052
:102840008091A9019091AA01A091AB01B091AC0136
:10285000892B8A2B8B2B09F483CF0E94C20900910C
:10286000A9011091AA012091AB013091AC016C1922
:102870007D098E099F09061717072807390708F0F1
:102880006FCF8091A8010E94F61285E01092E602B7
:102890001092E5021092E802DF91CF911F910F9103
:1028A000FF90EF90DF90CF9008959D9191938F5F6F
:1028B0006DCF85EEA9CF8091A9019091AA01A09139
:1028C000AB01B091AC01892B8A2B8B2B09F4A2CFE1
:1028D0000E94C2090091A9011091AA012091AB01A7
:1028E0003091AC016C197D098E099F0906171707F5
:1028F0002807390708F08ECFC4CF80E0C7CF82E029
:10290000C5CF83E0C3CFEF92FF920F931F93CF9376
:10291000DF937C01C62F8091AF039091B0030097A5
:1029200009F459C02091B30331E03093E8022093B9
:10293000E7021092E6021092E502DC01ED91FC91B3
:102940000190F081E02D60E009958701EE24E39489
:10295000F12CD1E0C1508091AF039091B003CF3FF3
:1029600091F1B0E2EB16F104D8F00E949C13809133
:10297000AF039091B0032091B303D093E80220936A
:10298000E7021092E6021092E502DC01ED91FC9163
:102990000190F081E02D60E00995EE24E394F12CA4
:1029A0008091AF039091B003F8016491DC01ED9147
:1029B000FC910190F081E02D0995BFEFEB1AFB0A25
:1029C0000F5F1F4FC7CFDF91CF911F910F91FF90E6
:1029D000EF900C949C13E091BF03F091C0039081A1
:1029E0008091C5038095892380838701C15008F4B5
:1029F00038C0F80184912091AD033091AE03232BB0
:102A000029F00E949F0C0F5F1F4FF0CF28E030E0AD
:102A100040E8E091BB03F091BC039091C303582FB1
:102A20005423D9F05081952B9083E091BD03F09110
:102A3000BE0390815091C403952B9083E091BD0318
:102A4000F091BE0350819091C4039095952390839B
:102A5000469521503109E9F6D6CF508190959523BE
:102A6000E3CFDF91CF911F910F91FF90EF900895E9
:102A70001F93CF93DF93EC018D8D9E8D009721F1F5
:102A8000162F29A131E03093E8022093E70210923B
:102A9000E6021092E502DC01ED91FC910190F081DB
:102AA000E02D60E009958D8D9E8DDC01ED91FC910E
:102AB0000190F081E02D612F09958D8D9E8DDF9124
:102AC000CF911F910C949C13ADA5BEA59C918BA991
:102AD000809589238C938B8D9C8D892B31F0862F4B
:102AE000DF91CF911F910C949F0C28E030E080E89B
:102AF000A9A5BAA599A9462F4823C1F04C91942BBA
:102B00009C93ABA5BCA59C914AA9942B9C93ABA587
:102B1000BCA54C919AA9909594239C93869521509D
:102B2000310931F7DF91CF911F9108954C91909524
:102B30009423E6CFDF92EF92FF920F931F93CF93F0
:102B4000DF938091AF039091B003892B09F498C073
:102B50002091C7033091C8034091C9035091CA0323
:102B600060E074E284EF90E00E94362B205131093E
:102B70004109510956954795379527952093B800F7
:102B800065E08BE690E10E948314609196036150AA
:102B900082E993E00E9438152091980330919903BF
:102BA000C901079697FD079633E0959587953A9565
:102BB000E1F72091960330919703829F8001839FD4
:102BC000100D929F100D1124C091B103D091B2034A
:102BD0008091AF039091B0030C0F1D1F009709F473
:102BE0008FC02091B30331E03093E8022093E702D5
:102BF0001092E6021092E502DC01ED91FC91019049
:102C0000F081E02D60E40995EE24E394F12CDD24BD
:102C1000D3948091AF039091B0030C171D0709F472
:102C200046C0B0E2EB16F104D8F00E949C138091EC
:102C3000AF039091B0032091B303D092E8022093A8
:102C4000E7021092E6021092E502DC01ED91FC91A0
:102C50000190F081E02D60E40995EE24E394F12CDD
:102C60008091AF039091B0036991DC01ED91FC91EB
:102C70000190F081E02D0995BFEFEB1AFB0AC9CF57
:102C80008091AD039091AE03892B31F08091D003F8
:102C90009091D1030E94A60CE091C103F091C20370
:102CA00090818091C60380958923808369CF0E949B
:102CB0009C138091AF039091B003892B09F461C0FC
:102CC0002091CB033091CC034091CD035091CE03A2
:102CD00060E074E284EF90E00E94362B20513109CD
:102CE0004109510956954795379527952093B80086
:102CF000DF91CF911F910F91FF90EF90DF9008959A
:102D0000E091BF03F091C00380819091C503892BAE
:102D100080830C171D0769F289912091AD033091D2
:102D2000AE03232B19F00E949F0CF3CF28E030E074
:102D300040E8E091BB03F091BC039091C303582F8E
:102D40005423D9F05081952B9083E091BD03F091ED
:102D5000BE0390815091C403952B9083E091BD03F5
:102D6000F091BE0350819091C40390959523908378
:102D7000469521503109E9F6CCCF508190959523A5
:102D8000E3CFE091C103F091C20380819091C6032B
:102D9000892B8083ADCF1F93CF93DF93EC01162F48
:102DA0008D8D9E8D892BB1F12DA93EA94FA958ADCE
:102DB00060E074E284EF90E00E94362B20513109EC
:102DC0004109510956954795379527952093B800A5
:102DD00066EA111167EACE010E9438158D8D9E8D2D
:102DE000892B41F129AD3AAD4BAD5CAD60E074E2A9
:102DF00084EF90E00E94362B20513109410951099E
:102E000056954795379527952093B800DF91CF9138
:102E10001F9108958B8D9C8D892B21F08EAD9FADD8
:102E20000E94A60CEFA5F8A990818CA98095892312
:102E30008083CECFEFA5F8A980819CA9892B8083C0
:102E4000E5CF90E080E008952091980330919903B8
:102E5000C901079697FD079623E0959587952A95D2
:102E6000E1F72091960330919703829FA001839F01
:102E7000500D929F500D112470E060E08091B103DD
:102E80009091B2030C94622DFB0101900020E9F7B0
:102E90003197AF01461B570BDC01ED91FC9102808D
:102EA000F381E02D09948F929F92AF92BF920F937E
:102EB0001F93CF93DF93CDB7DEB7A1970FB6F894EA
:102EC000DEBF0FBECDBF19A2423008F44AE08E012A
:102ED0000F5D1F4F842E912CB12CA12CA5019401C4
:102EE0000E94362BE62FB901CA01EA3004F5E05DF5
:102EF000D801EE938D01232B242B252B79F790E01D
:102F000080E0109729F0BD0182E993E00E94441708
:102F1000A1960FB6F894DEBF0FBECDBFDF91CF9163
:102F20001F910F91BF90AF909F908F900895E95C93
:102F3000DFCFCF92DF92EF92FF92CF93DF936B01BF
:102F40007C016DE282E993E00E94E40EEC016627C9
:102F50007727CB016C197D098E099F094AE00E94F1
:102F600053178C0F9D1FDF91CF91FF90EF90DF9053
:102F7000CF900895CF93DF93BC01990F880B990BE5
:102F800097FF0EC00E949917EC0168E571E082E995
:102F900093E00E9444178C0F9D1FDF91CF910895FD
:102FA0004AE00E945317F0CF4F925F926F927F9248
:102FB0008F929F92AF92BF92CF92DF92EF92FF9249
:102FC0000F931F93CF936B017C01742EAC019B0177
:102FD0000E94E82A6BE571E0811126C04601570185
:102FE000E894B7F82FEF3FEF4FE75FE7C501B40173
:102FF0000E94E82A81110CC02FEF3FEF4FE75FE7F7
:10300000C501B4010E9423286FE571E0181664F031
:103010002FEF3FEF4FE75FE4C701B6010E94932A0D
:103020001816ACF463E671E082E993E0CF911F914A
:103030000F91FF90EF90DF90CF90BF90AF909F9057
:103040008F907F906F905F904F900C9444172FEF6C
:103050003FEF4FE75FECC701B6010E94232887FDD1
:10306000E1CF20E030E0A901C701B6010E9423288A
:1030700010E000E087FF0AC06DE282E993E00E9461
:10308000E40E8C01F7FAF094F7F8F094C0E060E0F9
:1030900070E080E09FE37C1641F020E030E040E209
:1030A00051E40E94EB29CF5FF6CFA70196010E9461
:1030B0007F292B013C010E94642A4B015C014AE0FC
:1030C0000E9453177C01E00EF11ECC23C1F1C50113
:1030D000B4010E9428289B01AC01C301B2010E94E7
:1030E0007E294B015C016EE282E993E00E94E40ECE
:1030F000E80EF91EC15018F120E030E040E251E442
:10310000C501B4010E9489282B013C010E94642A58
:103110004B01B12CA12C4AE0C501B4010E94531708
:10312000E80EF91EC501B4010E9428289B01AC01DC
:10313000C301B2010E947E294B015C01DBCFC701B4
:10314000CF911F910F91FF90EF90DF90CF90BF90A4
:10315000AF909F908F907F906F905F904F90089569
:10316000EF92FF920F931F93CF93DF938C017B011C
:10317000D0E0C0E0F701EC0FFD1F6491662361F021
:10318000D801ED91FC910190F081E02DC8010995E5
:10319000892B11F02196EECF68E571E0C8010E94FD
:1031A00044178C0F9D1FDF91CF911F910F91FF90BE
:1031B000EF9008950E94542D0F931F93CF93DF93A8
:1031C000EC0188819981009759F02A813B8126176B
:1031D000370730F081E0DF91CF911F910F91089573
:1031E0008B016F5F7F4F0E94972C009759F0998356
:1031F00088831B830A832C813D81232B59F7FC0193
:103200001082E8CF80E0E7CFCF93DF93EC01888195
:103210009981009711F00E940E2C198218821D824C
:103220001C821B821A82DF91CF910895CF92DF9288
:10323000EF92FF920F931F93CF93DF93CDB7DEB73B
:1032400062970FB6F894DEBF0FBECDBF8C01CB01E5
:10325000F8011182108213821282158214824AE0D0
:103260009E012F5F3F4F6901B9010E94B725F6010A
:1032700001900020E9F731977F01EC18FD08B701B4
:10328000C8010E94DC18811112C0C8010E940419F3
:1032900062960FB6F894DEBF0FBECDBFDF91CF911F
:1032A0001F910F91FF90EF90DF90CF900895F8015C
:1032B000F582E482B601808191810E94692DE8CF78
:1032C000CF92DF92EF92FF920F931F93CF93DF93F2
:1032D000CDB7DEB7A1970FB6F894DEBF0FBECDBF56
:1032E0007C01CB01BA01F701118210821382128294
:1032F000158214828E010F5F1F4F21E043E00E9470
:1033000099256C01009771F0FC0101900020E9F70C
:1033100031978F01081B190BB801C7010E94DC18F7
:10332000811112C0C7010E940419A1960FB6F8942A
:10333000DEBF0FBECDBFDF91CF911F910F91FF90E8
:10334000EF90DF90CF900895F70115830483B601C5
:10335000808191810E94692DE8CFFC01808191815B
:10336000009711F00C940E2C089585ED8093BC000D
:103370008091A9019091AA01A091AB01B091AC01FB
:103380000796A11DB11D23E0B695A7959795879542
:103390002A95D1F72091BC0024FD03C01092F201C0
:1033A00008954091A9015091AA016091AB017091DB
:1033B000AC01452B462B472B69F30097A105B105BE
:1033C00041F02AE22A95F1F700C00197A109B1095D
:1033D000E1CF8091A8010C94F6121F920F920FB6C4
:1033E0000F9211242F933F938F939F93AF93BF938B
:1033F0008091DD029091DE02A091DF02B091E002A7
:103400003091DC0223E0230F2D3758F50196A11DE2
:10341000B11D2093DC028093DD029093DE02A09325
:10342000DF02B093E0028091E1029091E202A0916C
:10343000E302B091E4020196A11DB11D8093E10267
:103440009093E202A093E302B093E402BF91AF91A4
:103450009F918F913F912F910F900FBE0F901F90D2
:10346000189526E8230F0296A11DB11DD2CF1F92F9
:103470000F920FB60F9211242F933F934F935F93A8
:103480006F937F938F939F93AF93BF93EF93FF932C
:1034900089EE92E00E94C108FF91EF91BF91AF9138
:1034A0009F918F917F916F915F914F913F912F915C
:1034B0000F900FBE0F901F9018951F920F920FB68E
:1034C0000F9211242F938F939F93EF93FF93E0918B
:1034D000F902F091FA028081E091FF02F09100037D
:1034E00082FD1BC09081809102038F5F8F732091BA
:1034F0000303821741F0E0910203F0E0E751FD4F32
:10350000958F80930203FF91EF919F918F912F915F
:103510000F900FBE0F901F9018958081F4CF1F92CF
:103520000F920FB60F9211242F933F934F935F93F7
:103530006F937F938F939F93AF93BF93EF93FF937B
:103540008091B900887F803609F44AC0F0F588324E
:1035500009F4A7C018F5803109F49BC0B8F488239A
:1035600009F4F9C0883009F494C0FF91EF91BF913C
:10357000AF919F918F917F916F915F914F913F910B
:103580002F910F900FBE0F901F901895883109F45E
:1035900088C0803251F78093F10114C0803409F45F
:1035A0009DC040F48033B9F38833F9F68093F1017C
:1035B00085ECB0C0803509F485C0883509F496C023
:1035C000883499F60E94B519D0CF883909F48CC097
:1035D00038F5883729F050F4883611F0803729F60D
:1035E00083E08093F2011092F00157C0883809F40B
:1035F0007BC0803919F0803809F0B7CF8091F00195
:10360000803208F071C0E091F00181E08E0F80936C
:10361000F0018091BB00F0E0E053FE4F80833DC09D
:10362000803B39F0E0F4803A09F479C0883A09F037
:103630009CCF84E08093F2011092CF011092CE01D2
:10364000E0911B02F0911C0209958091CE0181113D
:103650000FC081E08093CE011092AE0109C0803C82
:1036600009F4A6CF883C09F4A3CF883B09F07DCFAD
:10367000E091CF0181E08E0F8093CF01F0E0E25521
:10368000FE4F80818093BB009091CF018091CE014D
:1036900029C0809117028093BB0085EC8093BC0009
:1036A00064CF9091160280911502981758F5E09119
:1036B000160281E08E0F80931602F0E0EB50FE4F71
:1036C0008081E9CFE091160281E08E0F809316028F
:1036D0008091BB00F0E0EB50FE4F8083909116028A
:1036E000809115029817C8F285E8D8CFE0911602AC
:1036F00081E08E0F809316028091BB00F0E0EB50CA
:10370000FE4F80838091F40181115CCF81E0809332
:10371000F30184EA8093BC001092F20126CF85EC7D
:103720008093BC001092F2018091F001803230F45D
:10373000E091F001F0E0E053FE4F10826091F00163
:1037400070E0E0911902F0911A0280ED91E0099584
:103750001092F0010ACF1092F10134CFE9EEF2E0BD
:103760001382128248EE53E060E070E04483558398
:10377000668377838CE091E09183808385EC90E091
:103780009587848784EC90E09787868780EC90E02B
:10379000918B808B81EC90E0938B828B82EC90E01C
:1037A000958B848B86EC90E0978B868B118E128E96
:1037B000138E148EA6E8B3E013961C921E921297F5
:1037C00014964D935D936D937C9317978EE191E0E2
:1037D00011969C938E93E2E9F3E01382128220E823
:1037E00030E03583248380E490E0978386833187BB
:1037F000208793878287168A1586148617861686F1
:1038000081E0858B848B2FEF3FEF338B228B318BC5
:10381000208B878B108E128E118E80E391E0918326
:103820008083148E138EB68FA58F10A2178E8FEF04
:1038300084A385A386A387A380A780E89AE1A6E056
:10384000B0E085AB96ABA7ABB0AF80EA96E8A1E05D
:10385000B0E081AF92AFA3AFB4AF80E586AF17AE53
:103860000895CF93DF93CDB7DEB7A8970FB6F8943E
:10387000DEBF0FBECDBF789484B5826084BD84B5B1
:10388000816084BD85B5826085BD85B5816085BD5B
:1038900080916E00816080936E0010928100809113
:1038A000810082608093810080918100816080939B
:1038B0008100809180008160809380008091B100C0
:1038C00084608093B1008091B00081608093B000EB
:1038D00080917A00846080937A0080917A0082607F
:1038E00080937A0080917A00816080937A00809141
:1038F0007A00806880937A001092C10023E832E059
:103900004FE1242E42E0342E88ECF1018083818344
:10391000F2E02F0E311C22153305B9F788E198E249
:103920000FB6F894A895809360000FBE9093600046
:103930008091B1039091B203892B41F520919803B6
:1039400030919903C901079697FD079623E0959555
:1039500087952A95E1F72091960330919703AC0162
:10396000429FC001439F900D529F900D11240E94D1
:10397000722B9093B2038093B103892B39F46EE7D5
:103980007FE089EE92E00E94B018FFCF0E942417DA
:103990008091980390919903609196037091970399
:1039A000AC0181970CF48DC74054510957FF02C0F8
:1039B0004F5F5F4F559547956255710977FF02C07C
:1039C0006F5F7F4F7595679510E4E12EF12C02E54E
:1039D00010E02EEB38E082E993E00E94901182E043
:1039E0008093B4038091AF039091B003892B09F4C5
:1039F00080C78CE38093B30310921E0210921D02C5
:103A00001092E6021092E5020E94D81289E19AE033
:103A100090931C0280931B028AE19AE090931A0211
:103A2000809319028091BA0387FD1DC00E9465082A
:103A300061E08091BA030E94640961E070E080E077
:103A400090E00E94E70960E08091BA030E94640957
:103A50006AE070E080E090E00E94E70961E0809118
:103A6000BA030E9464098091AF039091B003892B3F
:103A700011F40C9432252091C7033091C803409172
:103A8000C9035091CA0360E074E284EF90E00E94A1
:103A9000362B2051310941095109569547953795E3
:103AA00027952093B80064E08AED96E00E94831485
:103AB00060919803615082E993E00E94381564E0B8
:103AC00086ED96E00E9483148091B40360E181301A
:103AD00009F064E182E993E00E94381564E082ED28
:103AE00096E00E9483148FE88093CF038091960321
:103AF000909197038038910511F00C944D25809199
:103B00009803909199038034910511F00C945D25F0
:103B10008091B403813011F00C944A258FE9809391
:103B2000CF0312E16AED82E993E00E943815612F1C
:103B300082E993E00E94381561E882E993E00E94EF
:103B400038156091CF0382E993E00E94381569ED42
:103B500082E993E00E9438158091B40362E28130DB
:103B600009F061EF82E993E00E94381566E08CEC81
:103B700096E00E9483148091AF039091B003892B4B
:103B800009F4A0C72091CB033091CC034091CD0321
:103B90005091CE0360E074E284EF90E00E94362BF7
:103BA0002051310941095109569547953795279577
:103BB0002093B8000E94241781E08093A60380938D
:103BC000A70381E090E09093A5038093A4039093D2
:103BD000A3038093A20310929F0310929E0310925E
:103BE000A1031092A00350E4E52EF12C00E810E0B0
:103BF0002EE73BE050E040E070E060E082E993E0D7
:103C00000E9490110E949A1568EB7BE080E090E0A2
:103C10000E94E709A8958EE00E94B009BC01990FA7
:103C2000880B990B0E942A282AE038E240EA5BE3DD
:103C30000E94892828E431EE4AEF5EE30E947E2943
:103C40002EE338EE49E55CE30E94EB2928EA35E3F0
:103C50004DE85DE30E9489282B013C010091D602CA
:103C60001091D702C801880F991F880F991FFC0176
:103C7000EE53FD4F6F01208131814281538160916C
:103C8000D8027091D9028091DA029091DB020E94F1
:103C90007E299B01AC01F6014082518262827382CF
:103CA000C301B2010E947F296093D8027093D902A8
:103CB0008093DA029093DB0220E030E040EA50E4A7
:103CC0000E94EB296093BE027093BF028093C002F2
:103CD0009093C1028FE00E94B009BC01990F880B3C
:103CE000990B0E942A282AE038E240EA5BE30E940E
:103CF00089284B015C0120E030E0A9010E94932A51
:103D000018160CF0E9C6A501940160E074E284EF96
:103D100098E40E94EB2920E030E543EC57E40E9450
:103D20007E294B015C0120E030E0A9010E94932A2A
:103D300018160CF0D9C620E030E543EC57E4C50175
:103D4000B4010E94EB290E94A02A20E038E545E852
:103D500055E40E94EB292FE03FEC4BE55BE30E942A
:103D60007F299B01AC0160E070E080E89FE30E9446
:103D7000EB2923E333E948E853E40E947E294B0111
:103D80005C01C090B802D090B902C601880F991F9B
:103D9000880F991F9C012C553D4F7901F901208115
:103DA0003181428153816091BA027091BB0280914E
:103DB000BC029091BD020E947E29F701808291820F
:103DC000A282B382A50194010E947F296093BA0266
:103DD0007093BB028093BC029093BD0220E030E060
:103DE00040EA50E40E94EB296093A0027093A10284
:103DF0008093A2029093A302C601019665E070E051
:103E00000E94222B9093B9028093B802C8010196B8
:103E100065E070E00E94222B9093D7028093D60237
:103E200080919F02811156C020E030E040E450E4D0
:103E3000C301B2010E94932A18160CF04BC020E077
:103E400030E040EF52E4C501B4010E942328181667
:103E50000CF440C02FB7F8948091DD029091DE02FF
:103E6000A091DF02B091E0022FBF80939B0290935C
:103E70009C02A0939D02B0939E02409297025092A2
:103E800098026092990270929A02809293029092A4
:103E90009402A0929502B092960280928F02909224
:103EA0009002A0929102B092920240928B025092A4
:103EB0008C0260928D0270928E0221E030E030938D
:103EC0008A0220938902309388022093870231E08E
:103ED00030939F0280919F02882309F414C120919E
:103EE0009702309198024091990250919A02C30131
:103EF000B2010E94932A181644F4409297025092FD
:103F000098026092990270929A02209193023091E5
:103F100094024091950250919602C501B4010E940D
:103F2000932A181644F48092930290929402A092DD
:103F30009502B092960220E030E0A901C501B401DB
:103F40000E94932A1816ECF4A501940160918F0247
:103F50007091900280919102909192020E947F292B
:103F600060938F02709390028093910290939202DB
:103F70008091890290918A02019690938A0280939F
:103F8000890220E030E040EA50E4C301B2010E941F
:103F9000932A1816ECF4A301920160918B027091A0
:103FA0008C0280918D0290918E020E947F296093F5
:103FB0008B0270938C0280938D0290938E0280917D
:103FC00087029091880201969093880280938702DD
:103FD000A3019201609197027091980280919902D9
:103FE00090919A020E947E2920E030E040E450E463
:103FF0000E94932A87FD54C020E030E040E250E464
:10400000C301B2010E94232818160CF449C02FB72F
:10401000F8948091DD029091DE02A091DF02B091D0
:10402000E0022FBF40919B0250919C0260919D0243
:1040300070919E02841B950BA60BB70B88359B4194
:10404000A105B10568F12FB7F8948091DD02909138
:10405000DE02A091DF02B091E0022FBF40919B02EF
:1040600050919C0260919D0270919E02841B950B61
:10407000A60BB70B8093830290938402A0938502D2
:10408000B093860210929F0280E280930101EFE1DB
:10409000F2E088EC8083818332962E163F06D1F7BA
:1040A0006091BE027091BF028091C0029091C102E6
:1040B0000E945D2A660F771F40E450E0461B570BB5
:1040C0008091000190E020910101FC01EE0FFF1FA3
:1040D000E15EFD4F20834183019662E370E00E9420
:1040E000222B80930001622F70E090E080E00E941C
:1040F0002A2820E030E040E05FE30E947F290E9410
:10410000642A609301016091890270918A021616F7
:1041100017060CF0EDC4072E000C880B990B0E94BB
:104120002A289B01AC0160918F02709190028091CE
:104130009102909192020E94EB296DA37EA38FA31E
:1041400098A76091870270918802812C912C54016C
:1041500016161706A4F4072E000C880B990B0E9464
:104160002A289B01AC0160918B0270918C02809196
:104170008D0290918E020E94EB294B015C0180918F
:104180009F02882309F4B9C42FB7F8946091DD0227
:104190007091DE028091DF029091E0022FBF0091CA
:1041A0009B0210919C0220919D0230919E02601B07
:1041B000710B820B930B28EE33E040E050E00E943D
:1041C000362B29013A010E94241782E08093A6032E
:1041D0008093A703B201CE0101960E9416192D818A
:1041E0003E815CE0529FC001539F900D1124969533
:1041F00087952DE030E06901C81AD90ACE010196F1
:104200000E94AD19FFE0EF2EF12C0FE010E02DEF32
:104210003FE050E040E065E070E082E993E00E941A
:104220009011D0929F03C0929E0384E190E09093FE
:10423000A1038093A0034AE0C301B2010E94531777
:1042400068E571E082E993E00E9444174091BE0264
:104250005091BF026091C0027091C102CE014F9691
:104260000E9460198BA19CA1ECE0E89F6001E99F8E
:10427000D00C1124D7FE03C0FFEFCF1ADF0AD5946C
:10428000C794D194C194D10821E4C20ED11C6FE02F
:10429000E62EF12C0FE010E02FED3FE050E040E083
:1042A00069E370E082E993E00E949011D0929F034D
:1042B000C0929E0344E150E05093A1034093A003B9
:1042C0006091BE027091BF028091C0029091C102C4
:1042D00041E00E94D4176091A0027091A1028091E8
:1042E000A2029091A3020E945D2ACE0101960E9433
:1042F00016192D813E814CE0429FC001439F900DD5
:104300001124969587952EE630E06901C81AD90ADE
:10431000CE0101960E94AD1921EC3FE050E040E053
:1043200066E670E082E993E00E949011D0929F03CC
:10433000C0929E0384E190E09093A1038093A00338
:104340006091A0027091A1028091A2029091A302BB
:104350000E945D2A072E000C880B990B97FFD6C38D
:104360000E94991780919F02811120C101E010E005
:1043700020E830E046E250E070E060E082E993E05F
:104380000E94A80B91E09093A6039093A70310922C
:104390009F0310929E038AE290E09093A103809382
:1043A000A0036CEB7FE082E993E00E94B0181092CA
:1043B0009F0310929E0383E390E09093A103809368
:1043C000A00367EB7FE082E993E00E94B018E1E090
:1043D000E093A603E093A703B501A401CE0149969B
:1043E0000E9460196D8C7E8C4091970250919802CA
:1043F0006091990270919A02CE0143960E946019D1
:104400008F89988D26E0289F6001299FD00C112468
:10441000D7FE03C0FFEFCF1ADF0AD594C794D1941B
:10442000C194D10821E4C20ED11C26E0269DC00112
:10443000279D900D112497FD01969595879591954F
:10444000819591098F5B9F4F90939F0380939E036B
:104450000AE210E01093A1030093A00341E0C5011C
:10446000B4010E94D41768E571E082E993E00E94EC
:104470004417D0929F03C0929E03F3E3AF2EB12C5A
:10448000B092A103A092A00360919702709198024C
:104490008091990290919A0241E00E94D41768E5B8
:1044A00071E082E993E00E9444174DA15EA16FA1E3
:1044B00078A5CE010D960E9460194091930250910B
:1044C00094026091950270919602CE0107960E9427
:1044D00060196DA17EA18FA198A50E945D2A2B0174
:1044E000CE0101960E9416192D813E81A6E0FA2E7A
:1044F000F29EC001F39E900D1124969587952EE6AD
:10450000C22ED12C4601881A990ACE0101960E942A
:10451000AD196091930270919402809195029091EF
:1045200096020E945D2ACE0101960E9416192D81E5
:104530003E81F29EC001F39E900D112496958795C1
:10454000C81AD90ACE0101960E94AD1990929F0314
:1045500080929E031093A1030093A003C2010E94C6
:10456000BA17D0929F03C0929E03B092A103A0926B
:10457000A0036091930270919402809195029091B2
:1045800096020E945D2ACB010E94BA17CE010796BF
:104590000E94AD19CE010D960E94AD19CE01439631
:1045A0000E94AD19CE0149960E94AD1980919F02DB
:1045B000882309F46DC16091BE027091BF028091A1
:1045C000C0029091C1020E945D2A660F771F40E4ED
:1045D00050E0461B570B8091000190E020910101B3
:1045E000FC01EE0FFF1FE15EFD4F2083418301962A
:1045F00062E370E00E94222B809300012E5F2093E3
:1046000001014FE1A42E42E0B42E5DE0452E512C75
:1046100069E3E62EF12C7EE6672E712C31E03093B3
:10462000A6033093A703F5018180912CC080D12C83
:10463000A4014150510901E010E023E030E0B6014F
:1046400082E993E00E947D11B6016F5F7F4F21E008
:1046500030E0A40182E993E00E947D11B60161502F
:10466000710921E030E0A40182E993E00E947D110C
:1046700020E430E048E250E06EE170E082E993E04F
:104680000E945F0B20E430E048E250E061E670E019
:1046900082E993E00E945F0B23E030E040E450E0C9
:1046A0006BE170E082E993E00E94A80B29E030E022
:1046B0004CE350E065E170E082E993E00E94A80BD2
:1046C00023E030E048E350E06BE170E082E993E002
:1046D0000E94A80B29E030E044E350E065E170E07F
:1046E00082E993E00E94A80B23E030E040E350E031
:1046F0006BE170E082E993E00E94A80B29E030E0D2
:104700004CE250E065E170E082E993E00E94A80B82
:1047100023E030E048E250E06BE170E082E993E0B2
:104720000E94A80B29E030E040E450E062E670E02F
:1047300082E993E00E94A80B23E030E04CE350E0D4
:1047400062E670E082E993E00E94A80B29E030E085
:1047500048E350E062E670E082E993E00E94A80B33
:1047600023E030E044E350E062E670E082E993E069
:104770000E94A80B29E030E040E350E062E670E0E0
:1047800082E993E00E94A80B23E030E04CE250E085
:1047900062E670E082E993E00E94A80B29E030E035
:1047A00048E250E062E670E082E993E00E94A80BE4
:1047B00050929F0340929E03F092A103E092A003C7
:1047C00065EB7FE082E993E00E94B01850929F036E
:1047D00040929E0321E330E03093A1032093A00395
:1047E00063EB7FE082E993E00E94B01847E050E07D
:1047F00050939F0340939E0389E290E09093A1031E
:104800008093A00360EB7FE082E993E00E94B01800
:1048100070929F0360929E03E5E3F0E0F093A103A2
:10482000E093A0036EEA7FE082E993E00E94B01873
:1048300070929F0360929E032DE230E03093A103BB
:104840002093A0036CEA7FE082E993E00E94B01815
:1048500070929F0360929E0345E250E05093A10343
:104860004093A00369EA7FE082E993E00E94B018D8
:1048700052E0A50EB11C2A143B0409F0CFCE0E94D1
:104880009A1580910101803618F080E28093010131
:104890000E949A156AE070E080E090E00E94E709CB
:1048A000CE014F960E94AD1980E090E0892B09F46B
:1048B000B1C90E945009882309F4ACC90E940000C4
:1048C000A9C94052510957FF02C04F5F5F4F55952C
:1048D00047956357710977FF02C06F5F7F4F7595EA
:1048E0006795F0E2EF2EF12C03E710E02EED36E0B5
:1048F00072C88091B8030E9465088091B9030E9434
:1049000065088091B803082E000C990BFC01ED5B43
:10491000FF4EE491F0E0EE0FFF1FE15DFF4E2591A9
:1049200034913093C0032093BF03FC01E95AFF4E3A
:10493000E491E093C5038091B903082E000C990B14
:10494000FC01ED5BFF4EE491F0E0EE0FFF1FE15D37
:10495000FF4EA591B491B093C203A093C103FC0193
:10496000E95AFF4EE491E093C6038C91E82BEC9357
:104970008091AD039091AE03892B91F11FB7F8940C
:1049800080911802811124C0EDE4F0E18491E1E608
:10499000F0E19491E82FF0E0EE0FFF1FE75CFF4E8F
:1049A000A591B491EC91E92321F461E08AE00E94A1
:1049B00064098AE00E9465088CB580618CBD8CB565
:1049C00080648CBD8DE00E9465088BE00E946508C4
:1049D000809118028F5F809318021FBF0C94121DE4
:1049E0008091B6030E9465088091B7030E94650814
:1049F0008091B603082E000C990BFC01ED5BFF4E75
:104A0000E491F0E0EE0FFF1FE15DFF4E2591349140
:104A10003093BC032093BB03FC01E95AFF4EE491A1
:104A2000E093C3038091B703082E000C990BFC019F
:104A3000ED5BFF4EE491F0E0EE0FFF1FE15DFF4EF6
:104A4000A591B491B093BE03A093BD03FC01E95AB4
:104A5000FF4EE491E093C4038C91E095E823EC933E
:104A60000C94121D8091AD039091AE03892B31F00F
:104A70008091D0039091D1030E94A60CE091C103D4
:104A8000F091C20390818091C60380958923808331
:104A90000C94531D8FEC0C948F1D8036910569F496
:104AA0008091980390919903409739F48091B403D1
:104AB000813031F480E18093CF0312E00C94921D99
:104AC0008FEAF9CFE091C103F091C2038081909108
:104AD000C603892B80836EC8812C30E5932E33EC7E
:104AE000A32E37E4B32E27C9812C912C540149C938
:104AF0001DA21EA21FA218A624CB60918302709152
:104B00008402809185029091860255CB4AE00E94F2
:104B1000531728CC80E391E0909393038093920302
:104B20008091B1039091B203009711F00C940E2C78
:104B30000895EF920F931F93CF93DF93E80134E032
:104B400047FD34E1042E000C550B57FF03C051956F
:104B500041955109E32E022F242FAE010E94DC253E
:104B6000CE01DF91CF911F910F91EF900895BB2758
:104B70004A3031F4992322F4BDE2909581959F4FFC
:104B80000C94C325BB27FB015527AA27880F991F23
:104B9000AA1FA41710F0A41B83955051B9F7A05D6C
:104BA000AA3308F0A95DA193009779F7B111B193E9
:104BB0001192CB010C941328A9E0B0E0E2EEF5E2EB
:104BC0000C944D296A01F22EB02E102FFBE3AF2E6C
:104BD000A01608F41BE31F5F012F27E0AE014F5F13
:104BE0005F4F0E943B27BC018981982F99709130BB
:104BF00009F43FC09BE2E1FC04C09E2D9170E0FCF3
:104C00003AC05E2D5071E82FE87083FF46C084E003
:104C1000911101C083E0EF2DE81B8F1508F0E0E053
:104C2000D6018E2F20E2552351F1992329F0D60188
:104C30009C93C60101966C0196012D5F3F4FE2FEE9
:104C400024C08EE4D6018C9391E411969C93119725
:104C500012968C93D9018E2F90E281111BC0E20F26
:104C6000F32FF11D10828EEF9FEF2996ECE00C944C
:104C700069299DE2C6CF90E2C4CF2D938150811166
:104C8000FCCFCE0ED11CE0E0D0CF8EE6D6018C93C7
:104C900091E6DBCF9D938150E0CF482F447082FF97
:104CA0003DC084E0911101C083E08F1510F4EF2D19
:104CB000E81BD6018E2F20E2552309F1992329F014
:104CC000D6019C93C60101966C0196012D5F3F4F62
:104CD000E2FE1BC089E4D6018C938EE411968C937E
:104CE000119786E412968C93D9018E2F90E2882337
:104CF00009F4B5CF9D938150FACF2D938150811146
:104D0000FCCFCE0ED11CE0E0D9CF89E6D6018C9342
:104D10008EE611968C93119786E6E4CF9B0177FF80
:104D200002C030E020E0A1E0B0E0911102C0B0E0AC
:104D3000A0E0F9013196AE0FBF1F8B2C912CBB2048
:104D400009F461C05401EFEFAE1ABE0AAA0DBB1DF3
:104D5000FA161B0619F014F04F2D4A1B511188C08A
:104D6000E3FC59C07601A42FB0E2A1114FC0C40EDC
:104D7000D11C992309F45BC040E0D6011196F601DD
:104D800090836D01552309F448C0012F060F9A81C5
:104D9000582F507184FF03C0913309F4015010164D
:104DA0000CF047C0093008F008E0EEE2FE2E5B018F
:104DB000A01AB10885019194819491082F3F320780
:104DC00029F4D601FC92F60131966F016217730740
:104DD00094F1021713077CF5DB01A21BB30BAA2485
:104DE000A394B12CAC0EBD1EAA0DBB1D11968C91C7
:104DF00021503109D601119628153905F4F0F60134
:104E000080836D01DBCFB12CA12CA0CFF701B19332
:104E10007F01A150AACF9111B0CFD601942F50E3BA
:104E200002C05D9391509111FCCFC40ED11C40E0A3
:104E3000ACCF01E0BACF80E3DBCF6217730731F468
:104E4000963388F4953311F4552369F0F601808385
:104E5000FD01842F90E2811108C0A40FB11D1C92A6
:104E600090E080E002CF81E3F1CF91938150F3CFC6
:104E7000911183CF8ACF283008F027E03327DA0159
:104E8000990F311D87FD916000966105710539F418
:104E900032602E5F3D9330E32A95E1F708959F3FFE
:104EA00030F080387105610509F03C5F3C5F3D934F
:104EB000913008F08068911DDF93CF931F930F937B
:104EC000FF92EF92192F987F9695E92F96959695D8
:104ED000E90FFF27E45EFE4F99273327EE24FF24D6
:104EE000A701E70105900894079428F4360FE71E00
:104EF000F81E491F511D660F771F881F991F0694C2
:104F0000A1F70590079428F4E70EF81E491F561FD5
:104F1000C11D770F881F991F661F0694A1F7059082
:104F2000079428F4F80E491F561FC71FD11D880F7C
:104F3000991F661F771F0694A1F70590079420F428
:104F4000490F561FC71FD81F990F661F771F881F4D
:104F50000694A9F784911095177041F0D695C795DE
:104F600057954795F794E7941A95C1F7E2ECF0E06E
:104F700068941590159135916591959105907FE212
:104F80007395E118F10A430B560BC90BD009C0F712
:104F9000E10CF11E431F561FC91FD01D7EF4703354
:104FA00011F48A95E6CFE894015030F0080F0AF426
:104FB0000027021708F4202F2395022F7A3328F0B8
:104FC00079E37D932A95E9F710C07D932A9589F6B8
:104FD000069497956795379517951794E118F10AF8
:104FE000430B560BC90BD00998F023957E9173950E
:104FF0007A3308F070E37C932013B8F77E917061E8
:105000007D9330F0839571E37D9370E32A95E1F70A
:105010001124EF90FF900F911F91CF91DF9199276D
:1050200087FD90950895DC01FC01672F719177232E
:10503000E1F7329704C07C916D9370836291AE1753
:10504000BF07C8F308950E94652808F481E0089519
:10505000E89409C097FB3EF4909580957095619512
:105060007F4F8F4F9F4F9923A9F0F92F96E9BB27C8
:105070009395F695879577956795B795F111F8CF44
:10508000FAF4BB0F11F460FF1BC06F5F7F4F8F4FAF
:105090009F4F16C0882311F096E911C0772321F0A5
:1050A0009EE8872F762F05C0662371F096E8862F3D
:1050B00070E060E02AF09A95660F771F881FDAF794
:1050C000880F9695879597F90895990F0008550FC1
:1050D000AA0BE0E8FEEF16161706E807F907C0F07E
:1050E00012161306E407F50798F0621B730B840B86
:1050F000950B39F40A2661F0232B242B252B21F460
:1051000008950A2609F4A140A6958FEF811D811DFF
:1051100008950E949C280C940D290E94FF2838F0C5
:105120000E94062920F0952311F00C94F6280C9487
:10513000FC2811240C9441290E941E2970F3959F8C
:10514000C1F3950F50E0551F629FF001729FBB277E
:10515000F00DB11D639FAA27F00DB11DAA1F649F1A
:105160006627B00DA11D661F829F2227B00DA11DCD
:10517000621F739FB00DA11D621F839FA00D611D53
:10518000221F749F3327A00D611D231F849F600D74
:10519000211D822F762F6A2F11249F5750409AF09D
:1051A000F1F088234AF0EE0FFF1FBB1F661F771F29
:1051B000881F91505040A9F79E3F510580F00C94F4
:1051C000F6280C9441295F3FE4F3983ED4F386958A
:1051D00077956795B795F795E7959F5FC1F7FE2B94
:1051E000880F911D9695879597F9089597F99F6770
:1051F00080E870E060E008959FEF80EC089500245F
:105200000A941616170618060906089500240A942B
:1052100012161306140605060895092E0394000CB1
:1052200011F4882352F0BB0F40F4BF2B11F460FF40
:1052300004C06F5F7F4F8F4F9F4F089557FD905869
:10524000440F551F59F05F3F71F04795880F97FB4A
:10525000991F61F09F3F79F0879508951216130604
:105260001406551FF2CF4695F1DF08C01616170633
:105270001806991FF1CF8695710561050894089568
:10528000E894BB2766277727CB0197F908952F92DB
:105290003F924F925F926F927F928F929F92AF92C6
:1052A000BF92CF92DF92EF92FF920F931F93CF9313
:1052B000DF93CDB7DEB7CA1BDB0B0FB6F894DEBFAA
:1052C0000FBECDBF09942A88398848885F846E84D0
:1052D0007D848C849B84AA84B984C884DF80EE801A
:1052E000FD800C811B81AA81B981CE0FD11D0FB623
:1052F000F894DEBF0FBECDBFED0108955058BB2717
:10530000AA270E9496290C940D290E94FF2838F0A4
:105310000E94062920F039F49F3F19F426F40C94DA
:10532000FC280EF4E095E7FB0C94F628E92F0E9488
:105330001E2958F3BA17620773078407950720F0F0
:1053400079F4A6F50C9440290EF4E0950B2EBA2FB3
:10535000A02D0B01B90190010C01CA01A00111247B
:10536000FF27591B99F0593F50F4503E68F11A1627
:10537000F040A22F232F342F4427585FF3CF4695B8
:1053800037952795A795F0405395C9F77EF41F16DA
:10539000BA0B620B730B840BBAF09150A1F0FF0FA4
:1053A000BB1F661F771F881FC2F70EC0BA0F621F90
:1053B000731F841F48F4879577956795B795F79580
:1053C0009E3F08F0B0CF9395880F08F09927EE0F15
:1053D0009795879508950E94FF290C940D290E94A6
:1053E000062958F00E94FF2840F029F45F3F29F079
:1053F0000C94F62851110C9441290C94FC280E941D
:105400001E2968F39923B1F3552391F3951B550B8E
:10541000BB27AA2762177307840738F09F5F5F4F87
:10542000220F331F441FAA1FA9F335D00E2E3AF0C6
:10543000E0E832D091505040E695001CCAF72BD0DE
:10544000FE2F29D0660F771F881FBB1F261737072F
:105450004807AB07B0E809F0BB0B802DBF01FF2761
:1054600093585F4F3AF09E3F510578F00C94F62820
:105470000C9441295F3FE4F3983ED4F386957795E9
:105480006795B795F7959F5FC9F7880F911D96951A
:10549000879597F90895E1E0660F771F881FBB1F76
:1054A000621773078407BA0720F0621B730B840B23
:1054B000BA0BEE1F88F7E09508950E94642A68945D
:1054C000B1110C94412908950E94262988F09F5714
:1054D00098F0B92F9927B751B0F0E1F0660F771F18
:1054E000881F991F1AF0BA95C9F714C0B13091F00E
:1054F0000E944029B1E008950C944029672F782F2D
:105500008827B85F39F0B93FCCF3869577956795D2
:10551000B395D9F73EF490958095709561957F4F3E
:105520008F4F9F4F08950E94652808F48FEF0895CC
:1055300016F00C94ED2A0C94FC2868940C94F62830
:105540000E942629A8F39923C1F3AEF3DF93CF93EA
:105550001F930F93FF92C92FDD2788232AF02197ED
:10556000660F771F881FDAF720E030E040E85FEB36
:105570009FE3883920F0803E38F021968F770E9493
:105580007F29E8E6F0E004C00E947F29E5E9F0E029
:105590000E94FB2A8B01BE01EC01FB2E6F577109A3
:1055A0007595771F880B990B0E942A2828E132E70E
:1055B00041E35FE30E949C28AF2D9801AE01FF906C
:1055C0000F911F91CF91DF910E9496290C940D2984
:1055D0000E946528880B990B08959F3F31F09150E8
:1055E00020F4879577956795B795880F911D9695C7
:1055F000879597F90895DF93CF931F930F93FF92A9
:10560000EF92DF927B018C01689406C0DA2EEF01E5
:105610000E949C28FE01E894A59125913591459121
:105620005591A6F3EF010E949629FE019701A8016A
:10563000DA9469F7DF90EF90FF900F911F91CF916F
:10564000DF91089597FB072E16F4009407D077FD9D
:1056500009D00E94582B07FC05D03EF49095819507
:105660009F4F0895709561957F4F0895A1E21A2E7E
:10567000AA1BBB1BFD010DC0AA1FBB1FEE1FFF1FF6
:10568000A217B307E407F50720F0A21BB30BE40B46
:10569000F50B661F771F881F991F1A9469F760958D
:1056A0007095809590959B01AC01BD01CF01089547
:1056B000AA1BBB1B51E107C0AA1FBB1FA617B70738
:1056C00010F0A61BB70B881F991F5A95A9F7809554
:1056D0009095BC01CD010895EE0FFF1F0590F49148
:1056E000E02D09940F931F93CF93DF9382309105A0
:1056F00010F482E090E0E091D403F091D50330E023
:1057000020E0B0E0A0E0309799F42115310509F4CC
:105710004AC0281B390B24303105D8F58A819B817A
:105720006115710589F1FB0193838283FE0111C02C
:10573000408151810281138148175907E0F04817D1
:10574000590799F4109761F012960C9312971396DB
:105750001C933296CF01DF91CF911F910F91089545
:105760000093D4031093D503F4CF2115310551F0E4
:105770004217530738F0A901DB019A01BD01DF018F
:10578000F801C1CFEF01F9CF9093D5038093D403F3
:10579000CDCFFE01E20FF31F819391932250310987
:1057A00039832883D7CF2091D2033091D303232B81
:1057B00041F420910401309105013093D3032093EB
:1057C000D20320910201309103012115310541F4EA
:1057D0002DB73EB74091060150910701241B350BB0
:1057E000E091D203F091D303E217F307A0F42E1B4C
:1057F0003F0B2817390778F0AC014E5F5F4F241735
:10580000350748F04E0F5F1F5093D3034093D203E8
:10581000819391939FCFF0E0E0E09CCFCF93DF9313
:105820000097E9F0FC01329713821282A091D40311
:10583000B091D503ED0130E020E01097A1F4208174
:105840003181820F931F2091D2033091D303281707
:10585000390709F061C0F093D303E093D203DF91DD
:10586000CF910895EA01CE17DF07E8F54A815B8101
:105870009E0141155105B1F7E901FB83EA83499186
:105880005991C40FD51FEC17FD0761F480819181F8
:105890000296840F951FE901998388838281938101
:1058A0009B838A83F0E0E0E012968D919C911397A0
:1058B0000097B9F52D913C911197CD010296820F79
:1058C000931F2091D2033091D3032817390739F65B
:1058D000309751F51092D5031092D403B093D303AF
:1058E000A093D203BCCFD383C28340815181840F64
:1058F000951FC817D90761F44E5F5F4F8881998162
:10590000480F591F518340838A819B8193838283EF
:105910002115310509F0B0CFF093D503E093D403FE
:105920009ECFFD01DC01C0CF13821282D7CFB0E041
:10593000A0E0EDE9FCE20C9449298C01009751F4B8
:10594000CB010E94722B8C01C801CDB7DEB7E0E11C
:105950000C946529FC01E60FF71F9C0122503109C8
:10596000E217F30708F49DC0D901CD91DC9111979E
:10597000C617D70798F0C530D10530F3CE0104978C
:105980008617970708F3C61BD70B2297C193D193AD
:105990006D937C93CF010E940E2CD6CF5B01AC1A85
:1059A000BD0A4C018C0E9D1EA091D403B091D5036D
:1059B000512C412CF12CE12C109731F58091D20320
:1059C0009091D3038815990509F05CC046165706D7
:1059D00008F058C08091020190910301009741F4B2
:1059E0008DB79EB74091060150910701841B950B1E
:1059F000E817F90708F055C0F093D303E093D203FA
:105A0000F90171836083A0CF8D919C9111971296BB
:105A10006C90129713967C901397A815B90559F5B9
:105A20006C0142E0C40ED11CCA14DB0420F1AC01AD
:105A30004A195B09DA011296159780F06282738227
:105A400051834083D9016D937C93E114F10471F08B
:105A5000D7011396FC93EE93129776CF22968C0F74
:105A60009D1FF90191838083F301EFCFF093D5035C
:105A7000E093D40369CF4816590608F42C017D0140
:105A8000D3019ACFCB010E94722B7C01009749F081
:105A9000AE01B8010E94592DC8010E940E2C870149
:105AA00053CF10E000E050CF81E090E0F8940C94E8
:105AB000702DFB01DC0102C001900D92415050405D
:105AC000D8F70895DC0101C06D9341505040E0F7D4
:105AD0000895FB01DC0101900D920020E1F708958B
